:100000000C94F4000C9420010C9420010C94200119
:100010000C9420010C9420010C9420010C942001DC
:100020000C9420010C9420010C9420010C942001CC
:100030000C9420010C9420010C9420010C942001BC
:100040000C9420010C9420010C9420010C942001AC
:100050000C9420010C9420010C9420010C94710547
:100060000C9420010C9475060C94A1070C942001AB
:100070000C9420010C9420010C9420010C9420017C
:100080000C9420010C9420010C9420010C9420016C
:100090000C94AE060C94E0070C9420010C94200103
:1000A0000C9420010C9420010C9420010C9420014C
:1000B0000C9420010C9420010C9420010C9420013C
:1000C0000C9420010C9420010C9420010C94E70660
:1000D0000C941F080C9420010C9420070C945E08CB
:1000E0000C9420016E616E00696E660000407A100B
:1000F000F35A00A0724E18090010A5D4E80000E8D9
:100100007648170000E40B54020000CA9A3B000036
:1001100000E1F505000080969800000040420F00C5
:100120000000A08601000000102700000000E80386
:10013000000000006400000000000A000000000051
:100140000100000000002C76D888DC674F0823DF10
:10015000C1DFAE59E1B1B796E5E3E453C63AE651E3
:10016000997696E8E6C28426EB898C9B62ED407C0A
:100170006FFCEFBC9C9F40F2BAA56FA5F490055AA6
:100180002AF75C936B6CF9676DC11BFCE0E40D47CB
:10019000FEF520E6B500D0ED902E030094357705EE
:1001A0000080841E080000204E0A000000C80C33A6
:1001B0003333330F986E12831141EF8D2114893B35
:1001C000E65516CFFEE6DB18D1844B381BF77C1DB5
:1001D000901DA4BBE424203284725E228100C9F108
:1001E00024ECA1E53D27C80911241FBECFEFD1E2C1
:1001F000DEBFCDBF00E00CBF12E0A0E0B2E0E6E55C
:10020000FBE100E00BBF02C007900D92AA33B107DB
:10021000D9F714E0AAE3B2E001C01D92A43FB107F0
:10022000E1F711E0C8EED1E004C02297FE010E9480
:10023000A50DC63ED107C9F70E94E60A0C94E70B4C
:100240000C9400002F923F924F925F926F927F9298
:100250008F929F92AF92BF92CF92DF92EF92FF92D6
:100260000F931F93DF93CF93CDB7DEB761970FB690
:10027000F894DEBF0FBECDBF3C017F876E876A0159
:10028000FC0117821682838181FD03C06FEF7FEF2F
:100290006FC39E012F5F3F4F398B288BF301238162
:1002A000EE85FF8523FD859123FF8191FF87EE87F2
:1002B000882309F45AC3853251F4EE85FF8523FD66
:1002C000859123FF8191FF87EE87853229F490E0A5
:1002D000B3010E94D80CE2CF982F10E08824992413
:1002E0001032B0F49B3269F09C3228F4903251F015
:1002F000933271F40BC09D3239F0903349F41160A0
:1003000028C01260146025C0186023C0106121C08D
:1003100017FD2AC0892F80538A3078F416FF06C053
:10032000FAE09F9E902C1124980E13C03AE0839E11
:10033000802C1124880E10620CC09E3221F416FD10
:1003400014C3106406C09C3611F4106802C09836BD
:1003500059F4EE85FF8523FD959123FF9191FF8749
:10036000EE87992309F0BCCF892F8554833020F480
:10037000812F8061905E07C0892F8556833008F0F9
:100380009FC1812F8F7E86FD02C076E0972E6FE39E
:10039000F62EF822953619F4F0E4FF2A07C09636B7
:1003A00019F420E8F22A02C091109A94F7FE0AC0CC
:1003B0003BE3391518F45CE3B52E02C0B92CB394B5
:1003C00027E009C047E0491520F4BB2447E0942EFC
:1003D000F7CF292DBB24C60104969D878C87F60193
:1003E0006081718182819381AE014F5F5F4F0B2DE0
:1003F0000E94EA0B6C010981202E332400FF04C007
:1004000003FD02C01DE209C0F1FE02C01BE205C0EF
:10041000F2FC02C010E001C010E2C1018C709070CB
:10042000892BB9F1112311F483E001C084E0881510
:1004300010F088240AC0881AF3FC07C080E290E01C
:10044000B3010E94D80C8A94C9F7112329F0812F97
:1004500090E0B3010E94D80C23FE03C004EE10E02C
:100460000EC008EE10E00BC0E114F10409F0805258
:1004700090E0B3010E94D80C0F5F1F4F05C0EF2C16
:10048000FF24F0E1EF22FF24F8018491882361F733
:1004900014C1F7FE12C0BC0C24FE04C08A81813353
:1004A00009F4BA941B141CF0BB24B3942DC0F8E0DB
:1004B000FB1550F538E0B32E27C0F6FC25C0892D7A
:1004C00090E08C159D054CF02CEFC2162FEFD20654
:1004D00024F030E8F32A01C09A94992049F0E2E030
:1004E000F0E0EC0FFD1FE90DF11D80818033A1F3D9
:1004F000F7FE0AC0B92CB394892D90E0C816D9062E
:1005000014F0992401C09C18F7FC03C025E030E0EA
:1005100009C01C141D041CF021E030E003C096014A
:100520002F5F3F4F112311F02F5F3F4F992029F08C
:10053000892D90E00196280F391F882D90E028170B
:10054000390714F0882401C0821A4F2C5524C201A7
:1005500089709070892B39F008C080E290E0B30177
:100560000E94D80C8A948820C1F7112329F0812F8A
:1005700090E0B3010E94D80C43FE07C008C080E39E
:1005800090E0B3010E94D80C8A948820C1F7F7FE4E
:1005900046C08601D7FE02C000E010E07601089454
:1005A000E11CF11CE01AF10A41E050E04C0F5D1F24
:1005B000E40EF51E26014B185108892D90E0AA245F
:1005C000BB24A81AB90A5FEF0F3F150729F48EE282
:1005D00090E0B3010E94D80CC016D10634F040164A
:1005E00051061CF4F701808101C080E301501040E6
:1005F0000894E11CF11C0A151B052CF090E0B301D6
:100600000E94D80CE0CF0C151D0539F49A81963361
:1006100018F4953311F424FE81E390E04BC08A81F5
:10062000813309F00F7E90E0B3010E94D80C99202D
:10063000A1F08EE290E0B3010E94D80C12E0E1E05C
:10064000F0E0EC0FFD1FE10FF11D1F5F808190E0D6
:10065000B3010E94D80C9A9491F744FC03C085E63C
:1006600090E002C085E490E0B3010E94D80CD7FC72
:1006700005C0C114D10441F404FF06C0D094C19454
:10068000D108D3948DE201C08BE290E0B3010E94C7
:10069000D80C80E305C08F5F26EF3FEFC20ED31E5C
:1006A0003AE0C316D104BCF790E0B3010E94D80C25
:1006B000C601C096B3010E94D80CCC84DD8452C11F
:1006C000933631F0933799F0933509F059C023C030
:1006D000F601808189835E010894A11CB11C22E08F
:1006E00030E0C20ED31E21E0E22EF12C12C0F60142
:1006F000A080B18016FD03C06FEF7FEF02C0692DAF
:1007000070E022E030E0C20ED31EC5010E94CD0C85
:100710007C011F7713C0F601A080B18016FD03C0D5
:100720006FEF7FEF02C0692D70E022E030E0C20E73
:10073000D31EC5010E94C20C7C01106813FF07C0C4
:100740001BC080E290E0B3010E94D80C8A94882DEF
:1007500090E0E816F906A8F30FC0F50117FD8591A2
:1007600017FF81915F0190E0B3010E94D80C8110C6
:100770008A940894E108F108E114F10471F7F2C0D9
:10078000943611F0993689F517FF08C0F6012081DB
:1007900031814281538184E090E00AC0F60180817A
:1007A00091819C01442737FD4095542F82E090E0D1
:1007B000C80ED91E9FE6F92EF12257FF09C05095A9
:1007C0004095309521953F4F4F4F5F4F90E8F92A64
:1007D000CA01B901AE014F5F5F4F2AE030E00E94CD
:1007E000040DE82EE889EE1A41C0953721F41F7EEA
:1007F0002AE030E01CC0197F9F3661F0903720F46A
:10080000983509F0B2C00FC0903739F0983709F029
:10081000ACC004C028E030E00AC0106114FD1460D0
:1008200020E130E004C014FD166020E132E017FF43
:1008300008C0F601608171818281938144E050E0BB
:1008400008C0F60180819181BC0180E090E042E027
:1008500050E0C40ED51EAE014F5F5F4F0E94040DE5
:10086000E82E5889E51A8FE7F82EF122F6FE0BC024
:100870008EEFF822E91438F4F4FE07C0F2FC05C04C
:100880009FEEF92202C01E2D01C0192DF4FE0DC0ED
:10089000FE01EE0DF11D8081803319F4E9EEFE2298
:1008A00008C01F5FF2FE05C003C08F2D867809F0D7
:1008B0001F5F0F2DF3FC14C0F0FE0FC0181510F0D1
:1008C0009E2C0BC09E2C980C911A182D06C080E20D
:1008D00090E0B3010E94D80C1F5F1815C0F304C04C
:1008E000181510F4811A01C0882404FF0FC080E39A
:1008F00090E0B3010E94D80C02FF1DC001FD03C0AF
:1009000088E790E00EC088E590E00BC0802F8678E5
:1009100091F001FF02C08BE201C080E2F7FC8DE2A2
:1009200090E0B3010E94D80C06C080E390E0B301D0
:100930000E94D80C9A94E914C0F3EA94E1E0F0E044
:10094000EC0FFD1FEE0DF11D808190E0B3010E94C0
:10095000D80CEE2091F706C080E290E0B3010E942F
:10096000D80C8A948820C1F799CCF30166817781ED
:10097000CB0161960FB6F894DEBF0FBECDBFCF910D
:10098000DF911F910F91FF90EF90DF90CF90BF907C
:10099000AF909F908F907F906F905F904F903F901F
:1009A0002F9008951F9310E024C0812F0E943D05D1
:1009B000E12FF0E0EE0FFF1FE65CFD4F208131815B
:1009C000281B390B233331059CF088E794E060E065
:1009D00072E00E94E40B88E794E0612F4AE050E067
:1009E0000E94C60B68EE73E080E090E00E94B905BB
:1009F0001F5F80914E021817C0F21F9108951F9338
:100A0000CF93DF9388E794E040E855E260E070E040
:100A10000E949D0888E794E00E947D0968E873E1E0
:100A200080E090E00E94B90588E794E00E947D098B
:100A3000CAE3D2E010E0812F0E943D0599838883AC
:100A4000009729F080914E028F5F80934E021F5FC6
:100A500022961A3081F788E794E060E172E00E9404
:100A6000E40B88E794E060914E024AE050E00E9477
:100A7000C60BDF91CF911F910895382F863308F070
:100A8000365320917B00832F86958695869590E03E
:100A90008170907043E0880F991F4A95E1F7277F96
:100AA000282B20937B003770809128028295880F35
:100AB000880F807C832B80937C0080917A008064F7
:100AC00080937A0080917A0086FDFCCF2091780097
:100AD00040917900942F80E030E0282B392BC90118
:100AE00008951F920F920FB60F9211242F933F93E8
:100AF0008F939F93AF93BF93809153029091540231
:100B0000A0915502B0915602309157020196A11D55
:100B1000B11D232F2D5F2D3720F02D570196A11DDC
:100B2000B11D209357028093530290935402A093D7
:100B30005502B093560280914F0290915002A091BD
:100B40005102B09152020196A11DB11D80934F0236
:100B500090935002A0935102B0935202BF91AF9173
:100B60009F918F913F912F910F900FBE0F901F90EB
:100B700018959B01AC017FB7F89480914F0290913A
:100B80005002A0915102B091520266B5A89B05C0D7
:100B90006F3F19F00196A11DB11D7FBFBA2FA92F7C
:100BA000982F8827860F911DA11DB11D62E0880F27
:100BB000991FAA1FBB1F6A95D1F7BC012DC0FFB7B3
:100BC000F89480914F0290915002A0915102B091FF
:100BD0005202E6B5A89B05C0EF3F19F00196A11D92
:100BE000B11DFFBFBA2FA92F982F88278E0F911DF7
:100BF000A11DB11DE2E0880F991FAA1FBB1FEA9536
:100C0000D1F7861B970B885E9340C8F22150304085
:100C10004040504068517C4F211531054105510538
:100C200071F60895789484B5826084BD84B581603E
:100C300084BD85B5826085BD85B5816085BDEEE6E4
:100C4000F0E0808181608083E1E8F0E010828081C3
:100C500082608083808181608083E0E8F0E0808131
:100C600081608083E1EBF0E0808184608083E0EB51
:100C7000F0E0808181608083E1E9F0E08081826042
:100C80008083808181608083E0E9F0E08081816001
:100C90008083E1EAF0E080818260808380818160EE
:100CA0008083E0EAF0E0808181608083E1E2F1E02E
:100CB000808182608083808181608083E0E2F1E0D6
:100CC000808181608083EAE7F0E0808184608083B6
:100CD0008081826080838081816080838081806860
:100CE00080831092C100089508951F920F920FB64D
:100CF0000F920BB60F9211242F933F934F938F9324
:100D00009F93EF93FF934091C600209198023091FA
:100D100099022F5F3F4F2F73307080919A0290910C
:100D20009B022817390759F0E0919802F091990237
:100D3000E85AFD4F40833093990220939802FF9127
:100D4000EF919F918F914F913F912F910F900BBEFB
:100D50000F900FBE0F901F90189508951F920F923D
:100D60000FB60F920BB60F9211242F933F934F9310
:100D70008F939F93EF93FF934091CE002091200398
:100D8000309121032F5F3F4F2F73307080912203EA
:100D9000909123032817390759F0E0912003F0912F
:100DA0002103E052FD4F4083309321032093200321
:100DB000FF91EF919F918F914F913F912F910F90C4
:100DC0000BBE0F900FBE0F901F90189508951F92A5
:100DD0000F920FB60F920BB60F9211242F933F93E1
:100DE0004F938F939F93EF93FF934091D600209161
:100DF000A8033091A9032F5F3F4F2F73307080916C
:100E0000AA039091AB032817390759F0E091A80382
:100E1000F091A903E859FC4F40833093A903209334
:100E2000A803FF91EF919F918F914F913F912F9147
:100E30000F900BBE0F900FBE0F901F901895089546
:100E40001F920F920FB60F920BB60F9211242F9391
:100E50003F934F938F939F93EF93FF93409136016E
:100E600020913004309131042F5F3F4F2F73307049
:100E700080913204909133042817390759F0E0919A
:100E80003004F0913104E051FC4F40833093310441
:100E900020933004FF91EF919F918F914F913F915B
:100EA0002F910F900BBE0F900FBE0F901F901895B3
:100EB000E0918404F0918504E05CFF4F8191919171
:100EC00020813181821B930B8F739070892B11F0DD
:100ED0000E947406E091A304F091A404E05CFF4F2B
:100EE0008191919120813181821B930B8F7390703E
:100EF000892B11F00E94AD06E091C204F091C30469
:100F0000E05CFF4F8191919120813181821B930B95
:100F10008F739070892B11F00E94E606E091E10436
:100F2000F091E204E05CFF4F819191912081318149
:100F3000821B930B8F739070892B11F00E941F07F7
:100F400008951F920F920FB60F920BB60F921124B5
:100F50002F933F938F939F93EF93FF932091DC0206
:100F60003091DD028091DE029091DF02281739076F
:100F700031F48091C1008F7D8093C10014C0E09155
:100F8000DE02F091DF02E456FD4F20818091DE0207
:100F90009091DF0201968F7390709093DF0280939F
:100FA000DE022093C600FF91EF919F918F913F91B8
:100FB0002F910F900BBE0F900FBE0F901F901895A2
:100FC0001F920F920FB60F920BB60F9211242F9310
:100FD0003F938F939F93EF93FF93209164033091FE
:100FE000650380916603909167032817390731F4F0
:100FF0008091C9008F7D8093C90014C0E091660381
:10100000F0916703EC5DFC4F208180916603909125
:10101000670301968F7390709093670380936603C4
:101020002093CE00FF91EF919F918F913F912F914F
:101030000F900BBE0F900FBE0F901F9018951F9230
:101040000F920FB60F920BB60F9211242F933F936E
:101050008F939F93EF93FF932091EC033091ED03D7
:101060008091EE039091EF032817390731F48091B6
:10107000D1008F7D8093D10014C0E091EE03F091F8
:10108000EF03E455FC4F20818091EE039091EF0334
:1010900001968F7390709093EF038093EE032093EB
:1010A000D600FF91EF919F918F913F912F910F90DB
:1010B0000BBE0F900FBE0F901F9018951F920F92AE
:1010C0000FB60F920BB60F9211242F933F938F936D
:1010D0009F93EF93FF932091740430917504809156
:1010E0007604909177042817390731F48091310103
:1010F0008F7D8093310114C0E0917604F0917704E4
:10110000EC5CFB4F208180917604909177040196EE
:101110008F739070909377048093760420933601B8
:10112000FF91EF919F918F913F912F910F900BBE67
:101130000F900FBE0F901F901895AF92BF92DF9245
:10114000EF92FF920F931F93CF93DF93EC017A01FD
:101150008B01DD24403081EE580780E0680780E095
:10116000780711F0DD24D39491E0A92EB12CEC89FD
:10117000FD89DD2069F0C5010E8C02C0880F991F22
:101180000A94E2F7808360E079E08DE390E005C0A7
:10119000108260E874E88EE190E0A80197010E9457
:1011A000810D21503040404050405695479537952D
:1011B000279580E12030380720F0DD2011F0DD2474
:1011C000D6CFE889F9893083EA89FB892083EE89C3
:1011D000FF89408121E030E0C9010A8C02C0880FFC
:1011E000991F0A94E2F7482B4083EE89FF894081DA
:1011F000C9010B8C02C0880F991F0A94E2F7482B93
:101200004083EE89FF894081C9010C8C02C0880FA0
:10121000991F0A94E2F7482B4083EE89FF89808169
:101220000D8C02C0220F331F0A94E2F72095282369
:101230002083DF91CF911F910F91FF90EF90DF906E
:10124000BF90AF900895DC011C96ED91FC911D9725
:10125000E05CFF4F2191319180819181281B390BF6
:101260002F733070C9010895DC011C96ED91FC913B
:101270001D97E05CFF4F20813181E054F040DF0199
:10128000AE5BBF4F8D919C9111972817390719F4C8
:101290002FEF3FEF07C08D919C91E80FF91F8081E0
:1012A000282F30E0C9010895DC011C96ED91FC91D6
:1012B0001D97E05CFF4F20813181E054F040DF0159
:1012C000AE5BBF4F8D919C9111972817390719F488
:1012D0002FEF3FEF10C08D919C911197E80FF91FF0
:1012E00020818D919C91119701968F73907011962A
:1012F0009C938E9330E0C9010895FC018685978503
:10130000DC01A05CBF4FFC01EE5BFF4F2D913C91D7
:1013100011978081918128173907C1F70895CF93DC
:10132000DF93EC01EE85FF85E05CFF4F208131818A
:10133000E054F0402F5F3F4F2F733070DF01AE5B02
:10134000BF4F8D919C91119728173907D1F3E05C1D
:10135000FF4F80819181E054F040E80FF91F6083D6
:10136000EE85FF85E05CFF4F31832083EE89FF89A6
:10137000208181E090E00D8C02C0880F991F0A94B3
:10138000E2F7282B208381E090E0DF91CF91089550
:101390001F9310927B0410927A0428EE33E040E011
:1013A00050E020937C0430937D0440937E0450935E
:1013B0007F046DE272E0709379046093780488E5AD
:1013C00092E090938504809384048CE992E090935A
:1013D00087048093860485EC90E090938904809341
:1013E000880484EC90E090938B0480938A0480ECD2
:1013F00090E090938D0480938C0481EC90E0909326
:101400008F0480938E0486EC90E0909391048093F7
:10141000900414E010939204B3E0B0939304A7E017
:10142000A0939404F5E0F0939504E1E0E093960432
:1014300010929A041092990420939B0430939C0478
:1014400040939D0450939E04709398046093970476
:1014500080EE92E09093A4048093A30484E293E04E
:101460009093A6048093A5048DEC90E09093A8043B
:101470008093A7048CEC90E09093AA048093A90435
:1014800088EC90E09093AC048093AB0489EC90E0FE
:101490009093AE048093AD048EEC90E09093B004F2
:1014A0008093AF041093B104B093B204A093B3043B
:1014B000F093B404E093B5041092B9041092B80408
:1014C0002093BA043093BB044093BC045093BD04F2
:1014D0007093B7046093B60488E693E09093C304D6
:1014E0008093C2048CEA93E09093C5048093C40473
:1014F00085ED90E09093C7048093C60484ED90E05E
:101500009093C9048093C80480ED90E09093CB043D
:101510008093CA0481ED90E09093CD048093CC0435
:1015200086ED90E09093CF048093CE041093D00486
:10153000B093D104A093D204F093D304E093D404E5
:101540001092D8041092D7042093D9043093DA046F
:101550004093DB045093DC047093D6046093D5046D
:1015600080EF93E09093E2048093E10484E394E0BD
:101570009093E4048093E30485E391E09093E60480
:101580008093E50484E391E09093E8048093E7047A
:1015900080E391E09093EA048093E90481E391E091
:1015A0009093EC048093EB0486E391E09093EE0437
:1015B0008093ED041093EF04B093F004A093F10432
:1015C000F093F204E093F3041F910895CF93DF9317
:1015D0000E9412060E94FF04C8E5D7E00E94D204D0
:1015E0002097E1F30E945807F9CFCF92DF92EF9254
:1015F000FF920F931F93CF93DF937C016B018A01BE
:10160000C0E0D0E00FC0D6016D916D01D701ED9122
:10161000FC910190F081E02DC7011995C80FD91FE9
:10162000015010400115110571F7CE01DF91CF91E6
:101630001F910F91FF90EF90DF90CF900895EF9260
:10164000FF920F931F938C01DC01ED91FC910190AF
:10165000F081E02D6DE019957C01D801ED91FC91B0
:101660000190F081E02DC8016AE019959C012E0DD2
:101670003F1DC9011F910F91FF90EF900895CF93E7
:10168000DF93DB010D900020E9F71197A61BB70B44
:10169000EC01E881F9810280F381E02DAD0119951B
:1016A000DF91CF9108954F925F927F928F929F9298
:1016B000AF92BF92CF92DF92EF92FF920F931F9360
:1016C000DF93CF93CDB7DEB7A1970FB6F894DEBF07
:1016D0000FBECDBF2C01742ECB01223008F42AE0BE
:1016E00019A231E2C32ED12CCC0EDD1E822E9924FC
:1016F000AA24BB24672D752FA50194010E94810D9A
:1017000079018A01C801B701A50194010E94620D07
:10171000472D461B0894C108D1084A3014F4405D97
:1017200001C0495CF6014083E114F1040105110593
:1017300021F07E2C5F2DC801DDCFC201B6010E94D1
:101740003F0BA1960FB6F894DEBF0FBECDBFCF9171
:10175000DF911F910F91FF90EF90DF90CF90BF909E
:10176000AF909F908F907F905F904F900895DC0195
:101770002115310541F4ED91FC910190F081E02DAE
:10178000642F199508950E94530B0895CF92DF920C
:10179000EF92FF920F931F936C01E62E9A01FF24A4
:1017A00000E010E0B801A7010E94B70B8C01C60150
:1017B0000E941F0B080F191FC8011F910F91FF9066
:1017C000EF90DF90CF9008950E943F0B0895F8941A
:1017D0000C94A90D283008F027E03327DA01990F7F
:1017E000311D87FD916000966105710539F4326005
:1017F0002E5F3D9330E32A95E1F708959F3F30F047
:1018000080387105610509F03C5F3C5F3D93913084
:1018100008F08068911DDF93CF931F930F93FF9281
:10182000EF92192F987F9695E92F96959695E90F47
:10183000FF27EA5BFE4F99273327EE24FF24A701F9
:10184000E70105900894079428F4360FE71EF81E68
:10185000491F511D660F771F881F991F0694A1F716
:101860000590079428F4E70EF81E491F561FC11D66
:10187000770F881F991F661F0694A1F7059007949C
:1018800028F4F80E491F561FC71FD11D880F991F36
:10189000661F771F0694A1F70590079420F4490F5F
:1018A000561FC71FD81F990F661F771F881F0694E2
:1018B000A9F784911095177041F0D695C795579563
:1018C0004795F794E7941A95C1F7ECEEF0E0689429
:1018D0001590159135916591959105907FE27395DD
:1018E000E118F10A430B560BC90BD009C0F7E10C04
:1018F000F11E431F561FC91FD01D7EF4703311F413
:101900008A95E6CFE894015030F0080F0AF40027DA
:10191000021708F4202F2395022F7A3328F079E359
:101920007D932A95E9F710C07D932A9589F6069450
:1019300097956795379517951794E118F10A430B1A
:10194000560BC90BD00998F023957E9173957A3385
:1019500008F070E37C932013B8F77E9170617D935B
:1019600030F0839571E37D9370E32A95E1F71124BC
:10197000EF90FF900F911F91CF91DF91992787FDF5
:1019800090950895FC010590615070400110D8F7C2
:10199000809590958E0F9F1F0895FC0161507040B7
:1019A00001900110D8F7809590958E0F9F1F089594
:1019B0000F931F93CF93DF938C01EB018B8181FFFA
:1019C0001BC082FF0DC02E813F818C819D81281715
:1019D000390764F4E881F9810193F983E88306C04B
:1019E000E885F985802F1995892B31F48E819F81A7
:1019F00001969F838E8302C00FEF1FEFC801DF9116
:101A0000CF911F910F910895FA01AA27283051F123
:101A1000203181F1E8946F936E7F6E5F7F4F8F4F1F
:101A20009F4FAF4FB1E03ED0B4E03CD0670F781F7E
:101A3000891F9A1FA11D680F791F8A1F911DA11D63
:101A40006A0F711D811D911DA11D20D009F468949C
:101A50003F912AE0269F11243019305D3193DEF644
:101A6000CF010895462F4770405D4193B3E00FD0FA
:101A7000C9F7F6CF462F4F70405D4A3318F0495DE5
:101A800031FD4052419302D0A9F7EACFB4E0A695C8
:101A90009795879577956795BA95C9F700976105EA
:101AA000710508959B01AC010A2E06945795479540
:101AB00037952795BA95C9F7620F731F841F951F35
:101AC000A01D0895629FD001739FF001829FE00DD9
:101AD000F11D649FE00DF11D929FF00D839FF00DAD
:101AE000749FF00D659FF00D9927729FB00DE11D59
:101AF000F91F639FB00DE11DF91FBD01CF01112436
:101B00000895A1E21A2EAA1BBB1BFD010DC0AA1F3E
:101B1000BB1FEE1FFF1FA217B307E407F50720F056
:101B2000A21BB30BE40BF50B661F771F881F991FD1
:101B30001A9469F760957095809590959B01AC011A
:101B4000BD01CF010895EE0FFF1F0590F491E02D28
:061B50001994F894FFCF88
:101B56004C6173657220547269707065643A200036
:101B66004E756D626572206F662070696E732061B6
:101B760063746976653A200001000000008F09F55C
:0A1B86000A2309540934097D0900FF
:00000001FF
