:100000000C94F4000C9420010C9420010C94200119
:100010000C9420010C9420010C9420010C942001DC
:100020000C9420010C9420010C9420010C942001CC
:100030000C9420010C9420010C9420010C942001BC
:100040000C9420010C9420010C9420010C942001AC
:100050000C9420010C9420010C9420010C946B054D
:100060000C9420010C946F060C949B070C942001B7
:100070000C9420010C9420010C9420010C9420017C
:100080000C9420010C9420010C9420010C9420016C
:100090000C94A8060C94DA070C9420010C9420010F
:1000A0000C9420010C9420010C9420010C9420014C
:1000B0000C9420010C9420010C9420010C9420013C
:1000C0000C9420010C9420010C9420010C94E10666
:1000D0000C9419080C9420010C941A070C945808DD
:1000E0000C9420016E616E00696E660000407A100B
:1000F000F35A00A0724E18090010A5D4E80000E8D9
:100100007648170000E40B54020000CA9A3B000036
:1001100000E1F505000080969800000040420F00C5
:100120000000A08601000000102700000000E80386
:10013000000000006400000000000A000000000051
:100140000100000000002C76D888DC674F0823DF10
:10015000C1DFAE59E1B1B796E5E3E453C63AE651E3
:10016000997696E8E6C28426EB898C9B62ED407C0A
:100170006FFCEFBC9C9F40F2BAA56FA5F490055AA6
:100180002AF75C936B6CF9676DC11BFCE0E40D47CB
:10019000FEF520E6B500D0ED902E030094357705EE
:1001A0000080841E080000204E0A000000C80C33A6
:1001B0003333330F986E12831141EF8D2114893B35
:1001C000E65516CFFEE6DB18D1844B381BF77C1DB5
:1001D000901DA4BBE424203284725E228100C9F108
:1001E00024ECA1E53D27C20911241FBECFEFD1E2C7
:1001F000DEBFCDBF00E00CBF12E0A0E0B2E0EAE459
:10020000FBE100E00BBF02C007900D92AA33B107DB
:10021000D9F714E0AAE3B2E001C01D92AE3FB107E6
:10022000E1F711E0C8EED1E004C02297FE010E9480
:100230009F0DC63ED107C9F70E94E00A0C94E10B5E
:100240000C9400002F923F924F925F926F927F9298
:100250008F929F92AF92BF92CF92DF92EF92FF92D6
:100260000F931F93DF93CF93CDB7DEB761970FB690
:10027000F894DEBF0FBECDBF3C017F876E876A0159
:10028000FC0117821682838181FD03C06FEF7FEF2F
:100290006FC39E012F5F3F4F398B288BF301238162
:1002A000EE85FF8523FD859123FF8191FF87EE87F2
:1002B000882309F45AC3853251F4EE85FF8523FD66
:1002C000859123FF8191FF87EE87853229F490E0A5
:1002D000B3010E94D20CE2CF982F10E08824992419
:1002E0001032B0F49B3269F09C3228F4903251F015
:1002F000933271F40BC09D3239F0903349F41160A0
:1003000028C01260146025C0186023C0106121C08D
:1003100017FD2AC0892F80538A3078F416FF06C053
:10032000FAE09F9E902C1124980E13C03AE0839E11
:10033000802C1124880E10620CC09E3221F416FD10
:1003400014C3106406C09C3611F4106802C09836BD
:1003500059F4EE85FF8523FD959123FF9191FF8749
:10036000EE87992309F0BCCF892F8554833020F480
:10037000812F8061905E07C0892F8556833008F0F9
:100380009FC1812F8F7E86FD02C076E0972E6FE39E
:10039000F62EF822953619F4F0E4FF2A07C09636B7
:1003A00019F420E8F22A02C091109A94F7FE0AC0CC
:1003B0003BE3391518F45CE3B52E02C0B92CB394B5
:1003C00027E009C047E0491520F4BB2447E0942EFC
:1003D000F7CF292DBB24C60104969D878C87F60193
:1003E0006081718182819381AE014F5F5F4F0B2DE0
:1003F0000E94E40B6C010981202E332400FF04C00D
:1004000003FD02C01DE209C0F1FE02C01BE205C0EF
:10041000F2FC02C010E001C010E2C1018C709070CB
:10042000892BB9F1112311F483E001C084E0881510
:1004300010F088240AC0881AF3FC07C080E290E01C
:10044000B3010E94D20C8A94C9F7112329F0812F9D
:1004500090E0B3010E94D20C23FE03C004EE10E032
:100460000EC008EE10E00BC0E114F10409F0805258
:1004700090E0B3010E94D20C0F5F1F4F05C0EF2C1C
:10048000FF24F0E1EF22FF24F8018491882361F733
:1004900014C1F7FE12C0BC0C24FE04C08A81813353
:1004A00009F4BA941B141CF0BB24B3942DC0F8E0DB
:1004B000FB1550F538E0B32E27C0F6FC25C0892D7A
:1004C00090E08C159D054CF02CEFC2162FEFD20654
:1004D00024F030E8F32A01C09A94992049F0E2E030
:1004E000F0E0EC0FFD1FE90DF11D80818033A1F3D9
:1004F000F7FE0AC0B92CB394892D90E0C816D9062E
:1005000014F0992401C09C18F7FC03C025E030E0EA
:1005100009C01C141D041CF021E030E003C096014A
:100520002F5F3F4F112311F02F5F3F4F992029F08C
:10053000892D90E00196280F391F882D90E028170B
:10054000390714F0882401C0821A4F2C5524C201A7
:1005500089709070892B39F008C080E290E0B30177
:100560000E94D20C8A948820C1F7112329F0812F90
:1005700090E0B3010E94D20C43FE07C008C080E3A4
:1005800090E0B3010E94D20C8A948820C1F7F7FE54
:1005900046C08601D7FE02C000E010E07601089454
:1005A000E11CF11CE01AF10A41E050E04C0F5D1F24
:1005B000E40EF51E26014B185108892D90E0AA245F
:1005C000BB24A81AB90A5FEF0F3F150729F48EE282
:1005D00090E0B3010E94D20CC016D10634F0401650
:1005E00051061CF4F701808101C080E301501040E6
:1005F0000894E11CF11C0A151B052CF090E0B301D6
:100600000E94D20CE0CF0C151D0539F49A81963367
:1006100018F4953311F424FE81E390E04BC08A81F5
:10062000813309F00F7E90E0B3010E94D20C992033
:10063000A1F08EE290E0B3010E94D20C12E0E1E062
:10064000F0E0EC0FFD1FE10FF11D1F5F808190E0D6
:10065000B3010E94D20C9A9491F744FC03C085E642
:1006600090E002C085E490E0B3010E94D20CD7FC78
:1006700005C0C114D10441F404FF06C0D094C19454
:10068000D108D3948DE201C08BE290E0B3010E94C7
:10069000D20C80E305C08F5F26EF3FEFC20ED31E62
:1006A0003AE0C316D104BCF790E0B3010E94D20C2B
:1006B000C601C096B3010E94D20CCC84DD8452C125
:1006C000933631F0933799F0933509F059C023C030
:1006D000F601808189835E010894A11CB11C22E08F
:1006E00030E0C20ED31E21E0E22EF12C12C0F60142
:1006F000A080B18016FD03C06FEF7FEF02C0692DAF
:1007000070E022E030E0C20ED31EC5010E94C70C8B
:100710007C011F7713C0F601A080B18016FD03C0D5
:100720006FEF7FEF02C0692D70E022E030E0C20E73
:10073000D31EC5010E94BC0C7C01106813FF07C0CA
:100740001BC080E290E0B3010E94D20C8A94882DF5
:1007500090E0E816F906A8F30FC0F50117FD8591A2
:1007600017FF81915F0190E0B3010E94D20C8110CC
:100770008A940894E108F108E114F10471F7F2C0D9
:10078000943611F0993689F517FF08C0F6012081DB
:1007900031814281538184E090E00AC0F60180817A
:1007A00091819C01442737FD4095542F82E090E0D1
:1007B000C80ED91E9FE6F92EF12257FF09C05095A9
:1007C0004095309521953F4F4F4F5F4F90E8F92A64
:1007D000CA01B901AE014F5F5F4F2AE030E00E94CD
:1007E000FE0CE82EE889EE1A41C0953721F41F7EF1
:1007F0002AE030E01CC0197F9F3661F0903720F46A
:10080000983509F0B2C00FC0903739F0983709F029
:10081000ACC004C028E030E00AC0106114FD1460D0
:1008200020E130E004C014FD166020E132E017FF43
:1008300008C0F601608171818281938144E050E0BB
:1008400008C0F60180819181BC0180E090E042E027
:1008500050E0C40ED51EAE014F5F5F4F0E94FE0CEC
:10086000E82E5889E51A8FE7F82EF122F6FE0BC024
:100870008EEFF822E91438F4F4FE07C0F2FC05C04C
:100880009FEEF92202C01E2D01C0192DF4FE0DC0ED
:10089000FE01EE0DF11D8081803319F4E9EEFE2298
:1008A00008C01F5FF2FE05C003C08F2D867809F0D7
:1008B0001F5F0F2DF3FC14C0F0FE0FC0181510F0D1
:1008C0009E2C0BC09E2C980C911A182D06C080E20D
:1008D00090E0B3010E94D20C1F5F1815C0F304C052
:1008E000181510F4811A01C0882404FF0FC080E39A
:1008F00090E0B3010E94D20C02FF1DC001FD03C0B5
:1009000088E790E00EC088E590E00BC0802F8678E5
:1009100091F001FF02C08BE201C080E2F7FC8DE2A2
:1009200090E0B3010E94D20C06C080E390E0B301D6
:100930000E94D20C9A94E914C0F3EA94E1E0F0E04A
:10094000EC0FFD1FEE0DF11D808190E0B3010E94C0
:10095000D20CEE2091F706C080E290E0B3010E9435
:10096000D20C8A948820C1F799CCF30166817781F3
:10097000CB0161960FB6F894DEBF0FBECDBFCF910D
:10098000DF911F910F91FF90EF90DF90CF90BF907C
:10099000AF909F908F907F906F905F904F903F901F
:1009A0002F9008951F9310E01EC0812F0E943705DD
:1009B000E12FF0E0EE0FFF1FE65CFD4F208131815B
:1009C000281B390B233331056CF082E894E060E09A
:1009D00072E00E94DE0B82E894E0612F4AE050E072
:1009E0000E94C00B1F5F809158021817F0F21F91F0
:1009F00008951F93CF93DF9382E894E040E855E297
:100A000060E070E00E94970882E894E00E94770915
:100A100068E873E180E090E00E94B30582E894E02A
:100A20000E947709CAE3D2E010E0812F0E943705C7
:100A300099838883009729F0809158028F5F809373
:100A400058021F5F22961F3081F782E894E060E130
:100A500072E00E94DE0B82E894E0609158024AE066
:100A600050E00E94C00BDF91CF911F910895382F65
:100A7000863308F0365320917B00832F8695869528
:100A8000869590E08170907043E0880F991F4A9599
:100A9000E1F7277F282B20937B0037708091280275
:100AA0008295880F880F807C832B80937C008091B7
:100AB0007A00806480937A0080917A0086FDFCCF72
:100AC0002091780040917900942F80E030E0282B2D
:100AD000392BC90108951F920F920FB60F9211245E
:100AE0002F933F938F939F93AF93BF9380915D021A
:100AF00090915E02A0915F02B0916002309161021C
:100B00000196A11DB11D232F2D5F2D3720F02D57EC
:100B10000196A11DB11D2093610280935D02909307
:100B20005E02A0935F02B09360028091590290919F
:100B30005A02A0915B02B0915C020196A11DB11D09
:100B40008093590290935A02A0935B02B0935C0287
:100B5000BF91AF919F918F913F912F910F900FBEB9
:100B60000F901F9018959B01AC017FB7F89480916E
:100B7000590290915A02A0915B02B0915C0266B555
:100B8000A89B05C06F3F19F00196A11DB11D7FBF45
:100B9000BA2FA92F982F8827860F911DA11DB11D4F
:100BA00062E0880F991FAA1FBB1F6A95D1F7BC018D
:100BB0002DC0FFB7F8948091590290915A02A091EC
:100BC0005B02B0915C02E6B5A89B05C0EF3F19F04F
:100BD0000196A11DB11DFFBFBA2FA92F982F8827FD
:100BE0008E0F911DA11DB11DE2E0880F991FAA1F54
:100BF000BB1FEA95D1F7861B970B885E9340C8F21E
:100C0000215030404040504068517C4F2115310503
:100C10004105510571F60895789484B5826084BDCC
:100C200084B5816084BD85B5826085BD85B58160F0
:100C300085BDEEE6F0E0808181608083E1E8F0E050
:100C40001082808182608083808181608083E0E87F
:100C5000F0E0808181608083E1EBF0E0808184605E
:100C60008083E0EBF0E0808181608083E1E9F0E067
:100C7000808182608083808181608083E0E9F0E010
:100C8000808181608083E1EAF0E0808182608083FE
:100C9000808181608083E0EAF0E0808181608083F0
:100CA000E1E2F1E0808182608083808181608083E5
:100CB000E0E2F1E0808181608083EAE7F0E080811A
:100CC0008460808380818260808380818160808372
:100CD0008081806880831092C100089508951F92DA
:100CE0000F920FB60F920BB60F9211242F933F93D2
:100CF0004F938F939F93EF93FF934091C600209162
:100D0000A2023091A3022F5F3F4F2F73307080916A
:100D1000A4029091A5022817390759F0E091A20288
:100D2000F091A302EE59FD4F40833093A30220932C
:100D3000A202FF91EF919F918F914F913F912F913F
:100D40000F900BBE0F900FBE0F901F901895089537
:100D50001F920F920FB60F920BB60F9211242F9382
:100D60003F934F938F939F93EF93FF934091CE00C8
:100D700020912A0330912B032F5F3F4F2F73307048
:100D800080912C0390912D032817390759F0E09199
:100D90002A03F0912B03E651FD4F408330932B0340
:100DA00020932A03FF91EF919F918F914F913F9153
:100DB0002F910F900BBE0F900FBE0F901F901895A4
:100DC00008951F920F920FB60F920BB60F92112437
:100DD0002F933F934F938F939F93EF93FF93409164
:100DE000D6002091B2033091B3032F5F3F4F2F7392
:100DF00030708091B4039091B5032817390759F0EA
:100E0000E091B203F091B303EE58FC4F408330936E
:100E1000B3032093B203FF91EF919F918F914F9174
:100E20003F912F910F900BBE0F900FBE0F901F9010
:100E3000189508951F920F920FB60F920BB60F924E
:100E400011242F933F934F938F939F93EF93FF938F
:100E50004091360120913A0430913B042F5F3F4F7F
:100E60002F73307080913C0490913D04281739070E
:100E700059F0E0913A04F0913B04E650FC4F408376
:100E800030933B0420933A04FF91EF919F918F910F
:100E90004F913F912F910F900BBE0F900FBE0F906F
:100EA0001F901895E0918E04F0918F04E05CFF4F45
:100EB0008191919120813181821B930B8F7390706E
:100EC000892B11F00E946E06E091AD04F091AE0402
:100ED000E05CFF4F8191919120813181821B930BC6
:100EE0008F739070892B11F00E94A706E091CC04BB
:100EF000F091CD04E05CFF4F81919191208131818F
:100F0000821B930B8F739070892B11F00E94E00667
:100F1000E091EB04F091EC04E05CFF4F8191919142
:100F200020813181821B930B8F739070892B11F07C
:100F30000E94190708951F920F920FB60F920BB6D9
:100F40000F9211242F933F938F939F93EF93FF93CF
:100F50002091E6023091E7028091E8029091E90247
:100F60002817390731F48091C1008F7D8093C1002B
:100F700014C0E091E802F091E902EA55FD4F2081AA
:100F80008091E8029091E90201968F73907090939E
:100F9000E9028093E8022093C600FF91EF919F91B0
:100FA0008F913F912F910F900BBE0F900FBE0F901E
:100FB0001F9018951F920F920FB60F920BB60F92BB
:100FC00011242F933F938F939F93EF93FF9320913F
:100FD0006E0330916F038091700390917103281715
:100FE000390731F48091C9008F7D8093C90014C006
:100FF000E0917003F0917103E25DFC4F20818091DC
:1010000070039091710301968F73907090937103A8
:10101000809370032093CE00FF91EF919F918F9169
:101020003F912F910F900BBE0F900FBE0F901F900E
:1010300018951F920F920FB60F920BB60F921124B4
:101040002F933F938F939F93EF93FF932091F603FA
:101050003091F7038091F8039091F903281739072D
:1010600031F48091D1008F7D8093D10014C0E09144
:10107000F803F091F903EA54FC4F20818091F803C2
:101080009091F90301968F7390709093F903809378
:10109000F8032093D600FF91EF919F918F913F919C
:1010A0002F910F900BBE0F900FBE0F901F901895B1
:1010B0001F920F920FB60F920BB60F9211242F931F
:1010C0003F938F939F93EF93FF9320917E043091F2
:1010D0007F0480918004909181042817390731F4AE
:1010E000809131018F7D8093310114C0E0918004A3
:1010F000F0918104E25CFB4F20818091800490910B
:10110000810401968F739070909381048093800482
:1011100020933601FF91EF919F918F913F912F91F5
:101120000F900BBE0F900FBE0F901F901895AF92AF
:10113000BF92DF92EF92FF920F931F93CF93DF93B3
:10114000EC017A018B01DD24403081EE580780E00C
:10115000680780E0780711F0DD24D39491E0A92E90
:10116000B12CEC89FD89DD2069F0C5010E8C02C02F
:10117000880F991F0A94E2F7808360E079E08DE39D
:1011800090E005C0108260E874E88EE190E0A8016C
:1011900097010E947B0D21503040404050405695B1
:1011A00047953795279580E12030380720F0DD20DE
:1011B00011F0DD24D6CFE889F9893083EA89FB89EB
:1011C0002083EE89FF89408121E030E0C9010A8C4B
:1011D00002C0880F991F0A94E2F7482B4083EE89DA
:1011E000FF894081C9010B8C02C0880F991F0A94A6
:1011F000E2F7482B4083EE89FF894081C9010C8CBE
:1012000002C0880F991F0A94E2F7482B4083EE89A9
:10121000FF8980810D8C02C0220F331F0A94E2F7F0
:10122000209528232083DF91CF911F910F91FF906C
:10123000EF90DF90BF90AF900895DC011C96ED9188
:10124000FC911D97E05CFF4F21913191808191814C
:10125000281B390B2F733070C9010895DC011C96CF
:10126000ED91FC911D97E05CFF4F20813181E054AE
:10127000F040DF01AE5BBF4F8D919C911197281715
:10128000390719F42FEF3FEF07C08D919C91E80FBC
:10129000F91F8081282F30E0C9010895DC011C96D8
:1012A000ED91FC911D97E05CFF4F20813181E0546E
:1012B000F040DF01AE5BBF4F8D919C9111972817D5
:1012C000390719F42FEF3FEF10C08D919C911197C2
:1012D000E80FF91F20818D919C91119701968F73D2
:1012E000907011969C938E9330E0C9010895FC0193
:1012F00086859785DC01A05CBF4FFC01EE5BFF4F4C
:101300002D913C9111978081918128173907C1F760
:101310000895CF93DF93EC01EE85FF85E05CFF4FEE
:1013200020813181E054F0402F5F3F4F2F733070A8
:10133000DF01AE5BBF4F8D919C9111972817390744
:10134000D1F3E05CFF4F80819181E054F040E80FE1
:10135000F91F6083EE85FF85E05CFF4F31832083BA
:10136000EE89FF89208181E090E00D8C02C0880F1A
:10137000991F0A94E2F7282B208381E090E0DF9107
:10138000CF9108951F93109285041092840428EE43
:1013900033E040E050E0209386043093870440938C
:1013A0008804509389046DE272E070938304609323
:1013B000820482E692E090938F0480938E0486EA02
:1013C00092E0909391048093900485EC90E0909348
:1013D00093048093920484EC90E09093950480931E
:1013E000940480EC90E0909397048093960481ECB1
:1013F00090E0909399048093980486EC90E0909309
:101400009B0480939A0414E010939C04B3E0B0937F
:101410009D04A7E0A0939E04F5E0F0939F04E1E013
:10142000E093A0041092A4041092A3042093A504B6
:101430003093A6044093A7045093A8047093A20489
:101440006093A1048AEE92E09093AE048093AD0481
:101450008EE293E09093B0048093AF048DEC90E023
:101460009093B2048093B1048CEC90E09093B40418
:101470008093B30488EC90E09093B6048093B50415
:1014800089EC90E09093B8048093B7048EEC90E0E0
:101490009093BA048093B9041093BB04B093BC0436
:1014A000A093BD04F093BE04E093BF041092C30464
:1014B0001092C2042093C4043093C5044093C60420
:1014C0005093C7047093C1046093C00482E793E013
:1014D0009093CD048093CC0486EB93E09093CF045B
:1014E0008093CE0485ED90E09093D1048093D00456
:1014F00084ED90E09093D3048093D20480ED90E04B
:101500009093D5048093D40481ED90E09093D70418
:101510008093D60486ED90E09093D9048093D8040C
:101520001093DA04B093DB04A093DC04F093DD04A1
:10153000E093DE041092E2041092E1042093E304AD
:101540003093E4044093E5045093E6047093E00480
:101550006093DF048AEF93E09093EC048093EB04B4
:101560008EE394E09093EE048093ED0485E391E0A4
:101570009093F0048093EF0484E391E09093F2045D
:101580008093F10480E391E09093F4048093F3045A
:1015900081E391E09093F6048093F50486E391E073
:1015A0009093F8048093F7041093F904B093FA042D
:1015B000A093FB04F093FC04E093FD041F910895B5
:1015C000CF93DF930E940C060E94F904C2E5D7E096
:1015D0000E94D2042097E1F30E945207F9CFCF92E4
:1015E000DF92EF92FF920F931F93CF93DF937C01D3
:1015F0006B018A01C0E0D0E00FC0D6016D916D0192
:10160000D701ED91FC910190F081E02DC701199572
:10161000C80FD91F015010400115110571F7CE01F7
:10162000DF91CF911F910F91FF90EF90DF90CF90BE
:101630000895EF92FF920F931F938C01DC01ED91BF
:10164000FC910190F081E02D6DE019957C01D801AD
:10165000ED91FC910190F081E02DC8016AE01995AF
:101660009C012E0D3F1DC9011F910F91FF90EF901E
:101670000895CF93DF93DB010D900020E9F71197D8
:10168000A61BB70BEC01E881F9810280F381E02D04
:10169000AD011995DF91CF9108954F925F927F929E
:1016A0008F929F92AF92BF92CF92DF92EF92FF9272
:1016B0000F931F93DF93CF93CDB7DEB7A1970FB6EC
:1016C000F894DEBF0FBECDBF2C01742ECB012230AB
:1016D00008F42AE019A231E2C32ED12CCC0EDD1E73
:1016E000822E9924AA24BB24672D752FA50194016D
:1016F0000E947B0D79018A01C801B701A5019401FF
:101700000E945C0D472D461B0894C108D1084A3041
:1017100014F4405D01C0495CF6014083E114F1041A
:101720000105110521F07E2C5F2DC801DDCFC2011E
:10173000B6010E94390BA1960FB6F894DEBF0FBE1A
:10174000CDBFCF91DF911F910F91FF90EF90DF9070
:10175000CF90BF90AF909F908F907F905F904F9071
:101760000895DC012115310541F4ED91FC910190C2
:10177000F081E02D642F199508950E944D0B089576
:10178000CF92DF92EF92FF920F931F936C01E62EA0
:101790009A01FF2400E010E0B801A7010E94B10BFC
:1017A0008C01C6010E94190B080F191FC8011F9157
:1017B0000F91FF90EF90DF90CF9008950E94390B2A
:1017C0000895F8940C94A30D283008F027E03327EF
:1017D000DA01990F311D87FD916000966105710551
:1017E00039F432602E5F3D9330E32A95E1F7089596
:1017F0009F3F30F080387105610509F03C5F3C5F28
:101800003D93913008F08068911DDF93CF931F9333
:101810000F93FF92EF92192F987F9695E92F969547
:101820009695E90FFF27EA5BFE4F99273327EE24B1
:10183000FF24A701E70105900894079428F4360FC8
:10184000E71EF81E491F511D660F771F881F991F3D
:101850000694A1F70590079428F4E70EF81E491F97
:10186000561FC11D770F881F991F661F0694A1F789
:101870000590079428F4F80E491F561FC71FD11D65
:10188000880F991F661F771F0694A1F7059007948C
:1018900020F4490F561FC71FD81F990F661F771FC7
:1018A000881F0694A9F784911095177041F0D6957A
:1018B000C79557954795F794E7941A95C1F7ECEEBD
:1018C000F0E068941590159135916591959105908A
:1018D0007FE27395E118F10A430B560BC90BD0094F
:1018E000C0F7E10CF11E431F561FC91FD01D7EF427
:1018F000703311F48A95E6CFE894015030F0080F68
:101900000AF40027021708F4202F2395022F7A33B8
:1019100028F079E37D932A95E9F710C07D932A9505
:1019200089F6069497956795379517951794E1185A
:10193000F10A430B560BC90BD00998F023957E9101
:1019400073957A3308F070E37C932013B8F77E9197
:1019500070617D9330F0839571E37D9370E32A95F8
:10196000E1F71124EF90FF900F911F91CF91DF913C
:10197000992787FD90950895FC010590615070406E
:101980000110D8F7809590958E0F9F1F0895FC0148
:101990006150704001900110D8F7809590958E0F9E
:1019A0009F1F08950F931F93CF93DF938C01EB013B
:1019B0008B8181FF1BC082FF0DC02E813F818C81F6
:1019C0009D812817390764F4E881F9810193F9832F
:1019D000E88306C0E885F985802F1995892B31F4B5
:1019E0008E819F8101969F838E8302C00FEF1FEF30
:1019F000C801DF91CF911F910F910895FA01AA2795
:101A0000283051F1203181F1E8946F936E7F6E5F41
:101A10007F4F8F4F9F4FAF4FB1E03ED0B4E03CD0EF
:101A2000670F781F891F9A1FA11D680F791F8A1FD2
:101A3000911DA11D6A0F711D811D911DA11D20D039
:101A400009F468943F912AE0269F11243019305DF3
:101A50003193DEF6CF010895462F4770405D4193E4
:101A6000B3E00FD0C9F7F6CF462F4F70405D4A3331
:101A700018F0495D31FD4052419302D0A9F7EACFF9
:101A8000B4E0A6959795879577956795BA95C9F728
:101A900000976105710508959B01AC010A2E06941B
:101AA0005795479537952795BA95C9F7620F731FD4
:101AB000841F951FA01D0895629FD001739FF001A0
:101AC000829FE00DF11D649FE00DF11D929FF00DCE
:101AD000839FF00D749FF00D659FF00D9927729F05
:101AE000B00DE11DF91F639FB00DE11DF91FBD0190
:101AF000CF0111240895A1E21A2EAA1BBB1BFD01E0
:101B00000DC0AA1FBB1FEE1FFF1FA217B307E407DC
:101B1000F50720F0A21BB30BE40BF50B661F771F34
:101B2000881F991F1A9469F7609570958095909514
:101B30009B01AC01BD01CF010895EE0FFF1F059081
:0A1B4000F491E02D1994F894FFCF02
:101B4A004C6173657220547269707065643A200042
:101B5A004E756D626572206F662070696E732061C2
:101B6A0063746976653A200001000000008909EF74
:0A1B7A000A1D094E092E0977090023
:00000001FF
